:020000040800F2
:1000000000040020BD020008BF020008BF02000873
:10001000BF020008BF020008BF020008BF020008BC
:10002000BF020008BF020008BF020008157A0008DE
:10003000BF020008BF020008BF020008BF0200089C
:10004000BF020008BF020008BF020008BF0200088C
:10005000BF020008BF020008BF020008BF0200087C
:10006000BF020008BF020008BF020008B5880008F0
:10007000C9880008DD880008F188000805890008A3
:10008000198900082D890008BF020008BF02000876
:10009000BF020008BF020008BF020008BF0200083C
:1000A0003F83000843830008478300084B83000810
:1000B000ED9000081D8D0008BF020008E98A0008C5
:1000C000F18B0008BF020008BF020008BF02000851
:1000D000BF020008BF020008BF020008BF020008FC
:1000E000BF020008BF020008BF020008BF020008EC
:1000F000D18E0008BF020008BF020008BF0200083E
:10010000BF020008BF020008BF020008BF020008CB
:10011000BF020008BF020008A98E0008BD8E0008BB
:100120004189000855890008698900087D8900080F
:1001300091890008BF020008BF020008BF02000842
:10014000BF020008BF020008BF020008BF0200088B
:10015000BF020008BF020008BF020008BF0200087B
:10016000BF020008BF020008BF020008419100085A
:10017000BF020008BF020008BF020008BF0200085B
:10018000BF020008BF020008BF020008BF0200084B
:10019000BF020008BF020008BF020008BF0200083B
:1001A00072B6374880F30888364880F309883648A5
:1001B0003649086040F20000CCF200004EF634717F
:1001C000CEF200010860BFF34F8FBFF36F8F40F294
:1001D0000000C0F2F0004EF68851CEF20001086037
:1001E000BFF34F8FBFF36F8F4FF00000E1EE100AA7
:1001F0004EF63C71CEF200010860062080F31488B0
:10020000BFF36F8F07F01AF907F07EF84FF0553003
:100210001F491B4A91423CBF41F8040BFAE71D49B4
:10022000184A91423CBF41F8040BFAE71A491B4AAD
:100230001B4B9A423EBF51F8040B42F8040BF8E7FF
:1002400000201849184A91423CBF41F8040BFAE7D4
:1002500007F0F8F807F0F3F8144C154DAC4203DA48
:1002600054F8041B8847F9E703F0DEFE114C124DE9
:10027000AC4203DA54F8041B8847F9E707F0E0B80A
:1002800000040020000C00200000000808ED00E041
:100290000000002000040020F8A80008000C002046
:1002A000D80F0020D80F0020CC2D0020A00100087E
:1002B000A0010008A0010008A001000870E700F0FC
:1002C00000F8FEE72DE9F04F2DED108AC1F80CD0B3
:1002D000C3689D46BDEC108ABDE8F08F002383F310
:1002E00011882846A047002007F05EFBFEE707F0D4
:1002F000B7FA00DFFEE70000F8B52DED028B57ECF2
:10030000106B55EC114B00F0C7F8614BB0EE408A12
:10031000F0EE608A93F9003001332AD022462B4652
:100320002046294601F084FC18BB32463B46304645
:10033000394601F07DFC002844D1002200233046DC
:10034000394601F043FCD8B100220023204629465B
:1003500001F03CFC00283DD145EC104B00F0DEFEE6
:1003600038B1204629460022002301F039FC00283C
:100370005BD1B0EE480AF0EE680ABDEC028BF8BD26
:10038000B0EE480AF0EE680A00F0C8FE58B300224A
:10039000002351EC180B01F019FC0028E9D047ECC0
:1003A000106B00F0BBFE0028E3D045EC104B00F0D2
:1003B000B5FE0028DDD001F0BBFC222303609FEDD9
:1003C0002C8BD6E7204629460022002301F0FEFBB5
:1003D0000028CED09FED288BB0EE480AF0EE680AD8
:1003E000BDEC028BF8BD47EC106B00F097FE0028C7
:1003F000CDD045EC104B00F091FE0028C7D053EC57
:10040000182B18EE100A194601F012FC18BB01F067
:100410008FFC22230360002200233046394601F07E
:10042000DFFB48B99FED168BA3E701F081FC212388
:1004300003609FED158B9CE745EC104B00F080FEB0
:1004400022462B4651EC100B01F0C0FB0028E9D1ED
:100450009FED0D8B8DE701F06BFC00220023212125
:1004600001601046194601F073FA41EC180B80E761
:100470000000000000000000000000000000F03F4D
:10048000000000000000F07F000000000000F0FF0E
:10049000000C0020000000002DE9F04F51EC110B82
:1004A00021F0004555EA000393B03DD059EC108B84
:1004B000694B29F000449C424E4610EE10AA2CDCF9
:1004C0000F4611EE10CA36D09D4226DC624B9D428B
:1004D00020D0002ECDE9000138DB4FF0000BBCF13D
:1004E000000F4ED15C4B9D4200F094805B4B9D42CF
:1004F00000F0A180B7F1804F00F09E84584B9F42DE
:100500003FD1002E3DDB49EC108B13B0BDE8F04F1E
:1005100000F02EBDBCF1000FDBD004F1404404F527
:10052000801454EA0A030BD14C49002041EC100B13
:1005300013B0BDE8F08FB8F1000F01D1A542C5DDC1
:10054000484813B0BDE8F04F00F0F2BD464B9D4265
:1005500077DCA3F154739D420EDD2B15A3F2FF331C
:10056000142B40F37184C3F134032CFA03F202FA22
:1005700003F3634500F0B7844FF0000BBCF1000FAC
:10058000B4D049EC108B00F0BFFD51EC100BBAF168
:10059000000F22D124B1314B26F040429A421CD1A7
:1005A000002F05DA02460B4600202C4901F0D0F955
:1005B000002EBBDA04F1404404F5801454EA0B0326
:1005C00040F0648402460B461046194600F0DEFEF9
:1005D00002460B4601F0BCF9A8E7F30F03F1FF3A1E
:1005E0005BEA0A0330D0214B9D4243DD03F10473E3
:1005F0009D4240F3AF831E4B9C4240F33B83002F50
:1006000040F33B8312A3D3E900231046194601F0BF
:1006100075F88BE704F1404303F5801353EA0A03AE
:1006200082D0134B9C4240F35383002FC0F22583AA
:10063000DDE900017AE7002FC0F2F6834046494623
:1006400074E74FF0020B4AE742464B46BCE700BF57
:100650009C7500883CE4377E0000F07F0000F03F8E
:100660000000E03FECA80008FFFF3F430000E0412E
:10067000FFFFEF3FD24B3340002B40F0D3830022EB
:10068000D04B01F03BF86FF034060C462315CE4AF0
:10069000C4F31304A3F2FF3344F07F559E19944230
:1006A0000D9645F4401540F3B083C84B9C4240F38F
:1006B000F6839FEDAD7B8DED087B8DED107B9FED7F
:1006C000AC7B8DED067B01360D96A5F580154FF0C0
:1006D0000008DDE906232946064600F057FEDDE95D
:1006E0000623CDE90A013046294600F051FE0246B4
:1006F0000B460020B64901F02BF903460C46CDE924
:100700000E3402460B46DDE90A0100F0F7FF6B10DC
:1007100043F0005303F500230A462F46014603EB3E
:1007200008050023CDE902120293DDE902890024C5
:10073000CDE904122B4622464046494600F0DEFF32
:1007400002460B46DDE90A0100F020FEDDE9062342
:10075000CDE90A012046294600F018FE02460B4664
:100760003046394600F012FE42464B4600F0C6FFC6
:1007700002460B46DDE90A0100F008FEDDE90E2322
:1007800000F0BCFFDDE90445CDE9060122462B4619
:100790002046294600F0B2FF77A3D3E900230446A0
:1007A0000D4600F0ABFF76A3D3E9002300F0F0FD87
:1007B00022462B4600F0A2FF73A3D3E9002300F0EA
:1007C000E7FD22462B4600F099FF71A3D3E90023F1
:1007D00000F0DEFD22462B4600F090FF6EA3D3E929
:1007E000002300F0D5FD22462B4600F087FF6CA3C6
:1007F000D3E9002300F0CCFD224606460F462B46E7
:100800002046294600F07AFF02460B46304639461C
:1008100000F074FF424604460D464B46DDE90401F4
:1008200000F0B6FDDDE9062300F068FF22462B4606
:1008300000F0AEFD424606460F464B46404649464E
:1008400000F05CFF0022634BCDE90A0100F0A0FD3F
:1008500032463B4600F09CFD02980D460446224677
:100860002B464046494600F049FF00228046894613
:10087000584B2046294600F089FDDDE90A2300F0A7
:1008800085FD02460B463046394600F07FFDDDE926
:10089000042300F033FF224606460F462B46DDE9CF
:1008A000060100F02BFF02460B463046394600F0A9
:1008B0006FFD06460F4602460B464046494600F08D
:1008C00067FD029838A3D3E9002304460D4600F0E3
:1008D00015FF4246CDE904014B462046294600F06B
:1008E00055FD02460B463046394600F04FFD30A319
:1008F000D3E9002300F002FF2FA3D3E9002306462B
:100900000F462046294600F0F9FE02460B463046C7
:10091000394600F03DFDDDE9102300F039FD0446C5
:100920000D980D4600F080FE224606460F462B46E7
:10093000DDE9040100F02CFDDDE9082300F028FDCD
:1009400032463B4600F024FD029832463B46804644
:10095000894600F01BFDDDE9082300F017FDDDE905
:10096000042339E0AFF30080000000000000000025
:10097000000000000000F03FEF4E454A287ECA3FCD
:1009800065DBC9934A86CD3F01411DA96074D13F03
:100990004D268F515555D53FFFAB6FDBB66DDB3F15
:1009A000033333333333E33F000000E009C7EE3F46
:1009B000FD033ADC09C7EE3FF5015B14E02F3EBEB4
:1009C0000000F07F000040438E98030079B60B00D2
:1009D0000000F03F0000084000F0D8FC0B46024643
:1009E0002946204600F0D2FC0BF1FF3353EA0A03FC
:1009F000CDE9020140F067819FEDB97B8DED047B6D
:100A0000DDE9002300261046194632461F4600F055
:100A1000BDFC42464B4600F071FEDDE900238246F4
:100A20008B46DDE9020100F069FE02460B465046A6
:100A3000594600F0ADFC32468B4682463B46404666
:100A40004946CDE900AB00F059FE0B460246804610
:100A500089465046594600F09BFCB94B99420446E2
:100A60000D468B4640F30C8101F13F4303F5E00353
:100A7000034340F0FD819CA3D3E90023DDE900019D
:100A800000F086FC424606460F464B462046294665
:100A900000F07CFC02460B463046394601F0BEF8B9
:100AA000002840F0E581CBF30A534FF48012A3F203
:100AB000FE3342FA03F35B44C3F30A52A14DA2F2A0
:100AC000FF321541C3F3130423EA05010020C2F1EC
:100AD000140A44F48014BBF1000F02460B4644FA9A
:100AE0000AFA40464946B8BFCAF1000A00F04EFC77
:100AF000804689464246DDE900014B4600F048FC4D
:100B00004FEA0A5B0D46002479A3D3E9002320466F
:100B1000294600F0F3FD424606460F464B46204666
:100B2000294600F033FC02460B46DDE9000100F0E7
:100B30002DFC71A3D3E9002300F0E0FD70A3D3E9FD
:100B40000023804689462046294600F0D7FD02460C
:100B50000B464046494600F01BFC8046894602464B
:100B60000B463046394600F013FC32463B460446FD
:100B70000D4600F00BFC02460B464046494600F08D
:100B800005FC2246804689462B462046294600F031
:100B9000B5FD5DA3D3E9002306460F4600F0AEFD88
:100BA0005BA3D3E9002300F0F1FB32463B4600F0A3
:100BB000A5FD59A3D3E9002300F0EAFB32463B46EA
:100BC00000F09CFD56A3D3E9002300F0DFFB324682
:100BD0003B4600F093FD54A3D3E9002300F0D8FB7B
:100BE00032463B4600F08AFD02460B462046294627
:100BF00000F0CCFB06460F4602460B46204629462F
:100C000000F07CFD0022CDE900014FF0804330462A
:100C1000394600F0BBFB02460B46DDE9000100F05F
:100C200097FE424606460F464B462046294600F0B0
:100C300065FD42464B4600F0ABFB02460B46304694
:100C4000394600F0A3FB22462B4600F09FFB0246EC
:100C50000B4600203C4900F099FB8B44BBF5801FFC
:100C600002460B46C0F237815946DDE9042300F005
:100C700045FD5BE4002FFFF6C5AC0020002155E4E4
:100C8000DFF8CCC021F00043634540F3EB802F4BED
:100C90000B4403430AD142464B4600F077FBDDE9A3
:100CA000002300F0B1FF00283FF4FDAEDDE90401B0
:100CB0001FA3D3E9002300F021FD1DA3D3E90023E6
:100CC00000F01CFD32E49FED1C7B8DED047B97E66C
:100CD000002FD2DADDE90034184604F1004125E4A2
:100CE000000000000000F0BFFE822B654715973C16
:100CF00000000000432EE63FEF39FAFE422EE63FA9
:100D0000396CA80C615C20BED0A4BE726937663E07
:100D1000F16BD2C541BDBB3E2CDE25AF6A56113FFB
:100D200093BDBE166CC1663F3E5555555555C53FE2
:100D300059F3F8C21F6EA501000000000000F03F4B
:100D4000FFFF8F40FFFF0F000000F03F00346F3FB8
:100D5000FFCB9040824B9C428CDD824B9C423FF704
:100D60004EAC00227F4B00F011FB69A3D3E90023B6
:100D700004460D4600F0C2FC67A3D3E900230646F3
:100D80000F462046294600F0B9FC002280468946DD
:100D9000754B2046294600F0B1FC02460B4660A187
:100DA000D1E9000100F0F2FA22462B4600F0A6FC41
:100DB00002460B4600206D4900F0E8FA2246CDE9D4
:100DC00002012B462046294600F098FC02460B46BD
:100DD000DDE9020100F092FC53A3D3E9002300F007
:100DE0008DFC02460B464046494600F0CFFA0246CB
:100DF0000B4604460D463046394600F0C9FA00203D
:100E00008046894632463B46E6E59FED497B8DEDBF
:100E1000087B8DED107B9FED487B4FF000088DED3A
:100E2000067B56E4002631E442464B4600204D49FD
:100E300000F08EFDFFF77ABB42464B4640464946DE
:100E400000F05CFCFFF772BBBCF1000F36D1C3F1C0
:100E5000140345FA03F202FA03F3AB424DD0E34622
:100E6000FFF744BB414A93424DDCB346B2464AE6E3
:100E7000DDE9040132A3D3E9002300F03FFC30A3F5
:100E8000D3E9002300F03AFCFFF750BBBBF1010FA0
:100E90007FF44CAB01F100431946FFF747BB9FEDD0
:100EA0002A7B8DED087B9FED2A7B8DED107B9FEDDE
:100EB0002A7B4FF480288DED067B0AE449EC108BE9
:100EC00000F022F951EC100BBAF1000F7FF4BCAB2B
:100ED000D346FFF75FBB504643EC102B00F0C0F940
:100EE00051EC100BC1E602F00102C2F1020BBCF1A1
:100EF000000F3FF4FBAAFFF744BB02F00102C2F16E
:100F0000020BFFF7F3BA1B15CFE500BFAFF300806C
:100F1000000000604715F73F44DF5DF80BAE543E1C
:100F2000555555555555D53FFE822B654715F73F0D
:100F30000000000000000000000000000000F03F82
:100F40009C7500883CE4377E0000004003B8E23F17
:100F500006D0CF43EBFD4C3E000000000000F83F00
:100F6000FEFFEF3F0000F03F0000D03F0000E03FF9
:100F70002DE9F041634955EC104BA94300F09F80E7
:100F8000002D2B4610EE102A52DD5FEA255E00F0A0
:100F9000B180C3F31303AEF2FF3E43F48013D10FCD
:100FA0001EF0010F01EB43034FEA420403D0E40FAC
:100FB00004EB430394004FF0000C4FEA6E0E6646BC
:100FC00016254FF40012B118994202DC5B1A8E18F4
:100FD00094445B00013D03EBD4734FEA52024FEAA5
:100FE0004404F0D12F4620204FF0004209E041D0C8
:100FF000E10F01384FEA520201EB43034FEA440488
:1010000041D0B34202EB0501F1DD002901EB0205FD
:1010100009DBB0469B1BA14288BF03F1FF33641A72
:1010200017444646E4E7002DF3DB06F10108F1E73B
:1010300025F00041214339D0002D50D1D40A153B71
:1010400052052146002CF9D0E50256D4002000E0DC
:1010500028464900CC0200F10105F9D50C4611469D
:10106000AA40C5F1200521FA05F5A3EB000E45EADB
:1010700004038EE7A142BBD8002901EB0205D2DBB5
:1010800098460023CBE7234312D178084FEA6C013E
:1010900001F17F511CF0010F01F5001118BF40F064
:1010A000004001EB0E53024643EC102BBDE8F081EB
:1010B0007B1C16BF781C0CF1010C4008E6E710EE13
:1010C000102A2B4610EE100A294600F017FB224684
:1010D0002B4600F05DF941EC100BBDE8F081204695
:1010E000294600F053F902460B4600F031FC41EC72
:1010F000100BDBE729467346A8E7114620254FF081
:10110000FF30B0E70000F07F51EC100B10EE102A1A
:1011100021F0004343EC102B704700BF10EE903AD3
:1011200043F0004000F58010C00F70470000000041
:101130009FED010B704700BF000000000000F87F2A
:10114000F0B553EC102BC3F30A56A6F2FF30132868
:1011500083B019464FEAD37410EE105A37DC0028DA
:101160002DDB3D4E064103EA060717432BD07608D8
:1011700033401D430CD04FF48023132821EA060688
:1011800043FA00F141EA06010CBF4FF0004500258B
:10119000324800EBC4042A46D4E900450B462046F9
:1011A000294600F0F5F8CDE9000122462B46DDE99D
:1011B000000100F0EBF841EC100B03B0F0BD23F0A0
:1011C0000040104322D143EC102B03B0F0BD332874
:1011D00009DDB0F5806FF6D110EE100A00F0D8F8F6
:1011E00041EC100BF1E7A6F213464FF0FF30F04050
:1011F0000242E8D040080242CAD04FF0804325EABC
:10120000000043FA06F640EA0605C1E7C3F31300FF
:10121000104345420543114800EBC400D0E9006784
:10122000590C2D0B490405F4002545EA010330460D
:10123000394600F0ADF8CDE900013B463246DDE924
:10124000000100F0A3F821F0004343EAC47141EC2F
:10125000100B03B0F0BD00BFFFFF0F00109A000895
:1012600038B553EC102BC3F30A511C46054681BB1D
:1012700010EE101A23F00044214329D01946002211
:101280003D4B3E4C10EE100A00F038FAA5420246E3
:101290000B4616DB0C46C1F30A513639294440F29D
:1012A000FE70814221DC002947DC11F1350F34DA70
:1012B0004CF250318D4218DC002B27A1D1E90001FE
:1012C00044DB25A3D3E9002300F018FA41EC100B0E
:1012D00038BD40F2FF708142E0D110EE100A19468D
:1012E00000F056F841EC100B38BD002B1CA1D1E9E1
:1012F000000107DB1AA3D3E9002300F0FFF941EC5A
:10130000100B38BD18A1D1E9000115A3D3E90023C2
:1013100000F0F4F941EC100BF3E724F0FF4424F45F
:10132000E004363144EA0153104619460022144BBA
:1013300000F0E4F941EC100B38BD24F0FF4424F434
:10134000E00444EA015343EC102B38BD08A1D1E975
:101350000001B6E7AFF3008059F3F8C21F6EA50194
:101360009C7500883CE4377E9C7500883CE437FE21
:1013700059F3F8C21F6EA58100005043B03CFFFF37
:101380000000903C81F0004102E000BF83F0004388
:1013900030B54FEA41044FEA430594EA050F08BF10
:1013A00090EA020F1FBF54EA000C55EA020C7FEAD4
:1013B000645C7FEA655C00F0E2804FEA5454D4EB51
:1013C0005555B8BF6D420CDD2C4480EA020281EA1B
:1013D000030382EA000083EA010180EA020281EA53
:1013E0000303362D88BF30BD11F0004F4FEA0131A5
:1013F0004FF4801C4CEA113102D0404261EB4101B4
:1014000013F0004F4FEA03334CEA133302D0524239
:1014100063EB430394EA050F00F0A780A4F10104F5
:10142000D5F1200E0DDB02FA0EFC22FA05F280182F
:1014300041F1000103FA0EF2801843FA05F3594115
:101440000EE0A5F120050EF1200E012A03FA0EFC94
:1014500028BF4CF0020C43FA05F3C01851EBE371BE
:1014600001F0004507D54FF0000EDCF1000C7EEBDB
:1014700000006EEB0101B1F5801F1BD3B1F5001F19
:101480000CD349085FEA30004FEA3C0C04F1010438
:101490004FEA445212F5800F80F09A80BCF1004F61
:1014A00008BF5FEA500C50F1000041EB045141EAE3
:1014B000050130BD5FEA4C0C404141EB0101013CAC
:1014C00028BFB1F5801FE9D291F0000F04BF01469B
:1014D0000020B1FA81F308BF2033A3F10B03B3F16D
:1014E00020020CDA0C3208DD02F1140CC2F10C02FD
:1014F00001FA0CF021FA02F10CE002F11402D8BF5B
:10150000C2F1200C01FA02F120FA0CFCDCBF41EA26
:101510000C019040E41AA2BF01EB0451294330BDF5
:101520006FEA04041F3C1CDA0C340EDC04F11404D2
:10153000C4F1200220FA04F001FA02F340EA0300A9
:1015400021FA04F345EA030130BDC4F10C04C4F1EF
:10155000200220FA02F001FA04F340EA03002946CF
:1015600030BD21FA04F0294630BD94F0000F83F419
:10157000801306BF81F480110134013D4EE77FEAFC
:10158000645C18BF7FEA655C29D094EA050F08BF48
:1015900090EA020F05D054EA000C04BF1946104629
:1015A00030BD91EA030F1EBF0021002030BD5FEA6D
:1015B000545C05D14000494128BF41F0004130BD95
:1015C00014F580043CBF01F5801130BD01F00045E9
:1015D00045F0FE4141F470014FF0000030BD7FEA5C
:1015E000645C1ABF194610467FEA655C1CBF0B4657
:1015F000024650EA013406BF52EA033591EA030F6E
:1016000041F4002130BD00BF90F0000F04BF002165
:10161000704730B54FF4806404F132044FF0000598
:101620004FF0000150E700BF90F0000F04BF002111
:10163000704730B54FF4806404F1320410F0004577
:1016400048BF40424FF000013EE700BF42004FEA72
:10165000E2014FEA31014FEA02701FBF12F07F43EF
:1016600093F07F4F81F06051704732F07F4208BFA6
:10167000704793F07F4F04BF41F40021704730B5AD
:101680004FF4607401F0004521F000411CE700BFF9
:1016900050EA010208BF704730B54FF000050AE07C
:1016A00050EA010208BF704730B511F0004502D57D
:1016B000404261EB41014FF4806404F132045FEA7F
:1016C000915C3FF4D8AE4FF003025FEADC0C18BF28
:1016D00003325FEADC0C18BF033202EBDC02C2F11A
:1016E000200300FA03FC20FA02F001FA03FE40EAAC
:1016F0000E0021FA02F11444BDE600BF70B54FF0B0
:10170000FF0C4CF4E06C1CEA11541DBF1CEA13558D
:1017100094EA0C0F95EA0C0F00F0DEF82C4481EAF5
:10172000030621EA4C5123EA4C5350EA013518BF15
:1017300052EA033541F4801143F4801338D0A0FB02
:1017400002CE4FF00005E1FB02E506F00042E0FBAF
:1017500003E54FF00006E1FB03569CF0000F18BFB5
:101760004EF0010EA4F1FF04B6F5007F64F540745D
:1017700004D25FEA4E0E6D4146EB060642EAC621F0
:1017800041EA55514FEAC52040EA5E504FEACE2E5D
:10179000B4F1FD0C88BFBCF5E06F1ED8BEF1004F60
:1017A00008BF5FEA500E50F1000041EB045170BDDC
:1017B00006F0004646EA010140EA020081EA030120
:1017C000B4EB5C04C2BFD4EB0C0541EA045170BD1C
:1017D00041F480114FF0000E013C00F3AB8014F196
:1017E000360FDEBF002001F0004170BDC4F10004DF
:1017F000203C35DA0C341BDC04F11404C4F1200560
:1018000000FA05F320FA04F001FA05F240EA0200BA
:1018100001F0004221F0004110EBD37021FA04F6F0
:1018200042EB06015EEA430E08BF20EAD37070BDAA
:10183000C4F10C04C4F1200500FA04F320FA05F009
:1018400001FA04F240EA020001F0004110EBD3700B
:1018500041F100015EEA430E08BF20EAD37070BD7B
:10186000C4F1200500FA05F24EEA020E20FA04F354
:1018700001FA05F243EA020321FA04F001F0004103
:1018800021FA04F220EA020000EBD3705EEA430E74
:1018900008BF20EAD37070BD94F0000F0FD101F0A3
:1018A0000046400041EB010111F4801F08BF013CDC
:1018B000F7D041EA060195F0000F18BF704703F01A
:1018C0000046520043EB030313F4801F08BF013DA1
:1018D000F7D043EA0603704794EA0C0F0CEA13555D
:1018E00018BF95EA0C0F0CD050EA410618BF52EA17
:1018F0004306D1D181EA030101F000414FF000001D
:1019000070BD50EA410606BF1046194652EA43062A
:1019100019D094EA0C0F02D150EA013613D195EA9E
:101920000C0F05D152EA03361CBF104619460AD1E6
:1019300081EA030101F0004141F0FE4141F47001F0
:101940004FF0000070BD41F0FE4141F4780170BDE0
:1019500070B54FF0FF0C4CF4E06C1CEA11541DBF45
:101960001CEA135594EA0C0F95EA0C0F00F0A7F847
:10197000A4EB050481EA030E52EA03354FEA013174
:1019800000F088804FEA03334FF0805545EA131387
:1019900043EA12634FEA022245EA111545EA10654F
:1019A0004FEA00260EF000419D4208BF964244F1E6
:1019B000FD0404F5407402D25B084FEA3202B61A05
:1019C00065EB03055B084FEA32024FF480104FF4D9
:1019D000002CB6EB020E75EB030E22BFB61A75464D
:1019E00040EA0C005B084FEA3202B6EB020E75EBE0
:1019F000030E22BFB61A754640EA5C005B084FEA48
:101A00003202B6EB020E75EB030E22BFB61A754614
:101A100040EA9C005B084FEA3202B6EB020E75EB1F
:101A2000030E22BFB61A754640EADC0055EA060EE0
:101A300018D04FEA051545EA16754FEA06164FEA23
:101A4000C30343EA52734FEAC2025FEA1C1CC0D1CF
:101A500011F4801F0BD141EA00014FF000004FF05C
:101A6000004CB6E711F4801F04BF01430020B4F11D
:101A7000FD0C88BFBCF5E06F3FF6AFAEB5EB030CD5
:101A800004BFB6EB020C5FEA500C50F1000041EBD2
:101A9000045170BD0EF0004E4EEA113114EB5C049F
:101AA000C2BFD4EB0C0541EA045170BD41F4801172
:101AB0004FF0000E013C90E645EA060E8DE60CEA7A
:101AC000135594EA0C0F08BF95EA0C0F3FF43BAF97
:101AD00094EA0C0F0AD150EA01347FF434AF95EA4E
:101AE0000C0F7FF425AF104619462CE795EA0C0F32
:101AF00006D152EA03353FF4FDAE1046194622E7FF
:101B000050EA410618BF52EA43067FF4C5AE50EAD8
:101B100041047FF40DAF52EA43057FF4EBAE12E7C8
:101B20004FF0FF3C06E000BF4FF0010C02E000BFA9
:101B30004FF0010C4DF804CD4FEA410C7FEA6C5C8C
:101B40004FEA430C18BF7FEA6C5C1BD001B050EA2F
:101B5000410C0CBF52EA430C91EA030F02BF90EA1A
:101B6000020F0020704710F1000F91EA030F58BFD9
:101B7000994208BF90422CBFD8176FEAE37040F03B
:101B8000010070474FEA410C7FEA6C5C02D150EAD9
:101B9000013C07D14FEA430C7FEA6C5CD6D152EA94
:101BA000033CD3D05DF8040B704700BF8446104659
:101BB00062468C461946634600E000BF01B5FFF758
:101BC000B7FF002848BF10F1000F01BD4DF808ED28
:101BD000FFF7F4FF0CBF012000205DF808FB00BFF9
:101BE0004DF808EDFFF7EAFF34BF012000205DF853
:101BF00008FB00BF4DF808EDFFF7E0FF94BF0120A0
:101C000000205DF808FB00BF4DF808EDFFF7CEFFA0
:101C100094BF012000205DF808FB00BF4DF808EDDF
:101C2000FFF7C4FF34BF012000205DF808FB00BFB0
:101C30004FEA410C7FEA6C5C02D150EA013C0AD1C8
:101C40004FEA430C7FEA6C5C02D152EA033C02D1BA
:101C50004FF0000070474FF0010070474FEA41021B
:101C6000B2F1E04324BFB3F5001CDCF1FE5C0DD9FA
:101C700001F0004C4FEAC0024CEA5070B2F1004F44
:101C800040EB830008BF20F00100704711F0804F47
:101C900021D113F13872BCBF01F00040704741F40C
:101CA00080114FEA5252C2F11802C2F1200C10FA10
:101CB0000CF320FA02F018BF40F001004FEAC123F4
:101CC0004FEAD32303FA0CFC40EA0C0023FA02F398
:101CD0004FEA4303CCE77FEA625307D150EA01336E
:101CE0001EBF4FF0FE4040F44000704701F000403E
:101CF00040F0FE4040F40000704700BF53B94AB9BD
:101D0000002908BF00281CBF4FF0FF314FF0FF3003
:101D100000F00CB8ADF1080C6DE904CE07F00CFD35
:101D2000DDF804E0DDE9022304B07047704700BF2E
:101D3000014B1868704700BF040C00200000000031
:101D400001F0FF01102A2BDB10F0070F08D010F86C
:101D5000013B013A8B422DD010F0070F42B3F6D170
:101D6000F0B441EA012141EA014122F007047FF089
:101D700000070023F0E80256083C85EA010586EAE0
:101D8000010685FA47F5A3FA87F586FA47F6A5FA1C
:101D900087F68EB9EED1F0BC01F0FF0102F0070228
:101DA00032B110F8013B013A83EA010313B1F8D1D3
:101DB0000020704701387047002D06BF35460338B4
:101DC000073815F0010F07D1013015F4807F02BFED
:101DD000013015F4C03F0130F0BC0138704700BF3E
:101DE000032A70B412D940EA0105AD0704460B4638
:101DF00020D11946204653F8045B54F8046BAE42D8
:101E000018D1043A032A20461946F2D8541E72B15A
:101E100003780A789A4208BF241806D00CE010F81C
:101E2000013F11F8012F934206D1A042F7D10020C3
:101E300070BC7047541EEBE7981A70BC704700BF27
:101E4000844641EA000313F003036DD1403A41D3C5
:101E500051F8043B40F8043B51F8043B40F8043B84
:101E600051F8043B40F8043B51F8043B40F8043B74
:101E700051F8043B40F8043B51F8043B40F8043B64
:101E800051F8043B40F8043B51F8043B40F8043B54
:101E900051F8043B40F8043B51F8043B40F8043B44
:101EA00051F8043B40F8043B51F8043B40F8043B34
:101EB00051F8043B40F8043B51F8043B40F8043B24
:101EC00051F8043B40F8043B51F8043B40F8043B14
:101ED000403ABDD2303211D351F8043B40F8043BB4
:101EE00051F8043B40F8043B51F8043B40F8043BF4
:101EF00051F8043B40F8043B103AEDD20C3205D3C4
:101F000051F8043B40F8043B043AF9D2043208D0BB
:101F1000D2071CBF11F8013B00F8013B01D30B882D
:101F200003806046704700BF082A13D38B078DD00B
:101F300010F003038AD0C3F10403D21ADB071CBFDD
:101F400011F8013B00F8013B80D331F8023B20F847
:101F5000023B7BE7043AD9D3013A11F8013B00F880
:101F6000013BF9D20B7803704B7843708B78837008
:101F7000604670478842F0B40DD98B1883420AD965
:101F8000841832B1224613F8014D02F8014D9942EE
:101F9000F9D1F0BC70470F2A0ED80346541E002A10
:101FA000F7D001340C44013B11F8012B03F8012F49
:101FB000A142F9D1F0BC704740EA01039B073BD135
:101FC000A2F110073F0901F1200606EB071601F107
:101FD000100300F1100453F8105C44F8105C53F83F
:101FE0000C5C44F80C5C53F8085C44F8085C53F84B
:101FF000045C44F8045C1033B34204F11004EAD1E9
:102000007B1C1B0112F00C0F194402F00F05034456
:1020100015D0043DAD0803EB850C1C1F0E4656F889
:10202000047B44F8047F6445F9D10135AD002B44AD
:10203000294402F00302B1E7541E0346B1E72A46E1
:10204000ACE700BFF0B4860746D0541E002A3CD04F
:10205000CAB2034602E014F1FF3436D303F8012B71
:102060009D07F8D1032C29D9CDB245EA05250F2CBF
:1020700045EA054533D9A4F11006360903F12007D6
:1020800007EB061703F1100242E9045542E9025535
:102090001032BA42F8D1721C14F00C0F03EB02128A
:1020A00004F00F0613D0331F23F00303043313444B
:1020B00042F8045B9342FBD106F003042CB1C9B291
:1020C0001C4403F8011B9C42FBD1F0BC7047344612
:1020D0001346002CF3D1F8E714460346C2E71A462C
:1020E0002646E0E7704708B500F090F908BD08B54E
:1020F000FFF7F8FF08BD000010B5374C012220465D
:102100004FF4006106F04FFC204601224FF480613D
:1021100006F049FC20460122042106F044FC20463A
:102120000122022106F03FFC012280214FF0904065
:1021300006F039FC01221146204606F034FC40220C
:102140004FF480614FF0904006F02DFC40224FF498
:1021500000714FF0904006F026FC40224FF4807151
:102160004FF0904006F01FFC204640224FF4004103
:1021700006F019FC194840224FF4005106F013FCF8
:10218000164840224FF4804106F00DFC13484022CF
:102190004FF4004106F007FC402204214FF090402C
:1021A00006F001FC402208214FF0904006F0FBFBB6
:1021B000402211464FF0904006F0F5FB0A22002124
:1021C0000748FFF73FFF07480C220021FFF73AFFBF
:1021D000BDE8104000F0A3B9000400480008004822
:1021E000DC0F0020E60F00202DE9F04F5D4F5E4C24
:1021F00085B0B84600264FF0010A06F1FF39B9F163
:10220000040F04D8DFE809F0515456585D004FF42C
:1022100000632383012005F0CCFB4FF0904253482C
:10222000D2F810E0D2F810B011692369D0F810C0CC
:10223000056901954FEA1B2B89090BF0020B01F090
:1022400004014BEA0101CEF3802E1B0B41EA0E0183
:1022500003F008034FEA5C2C0B430CF010010B4316
:10226000019900690290490A01F020010B4302998B
:1022700010690390490A01F040010B430399156965
:102280001069490101F080016D010B4305F480756F
:10229000C0001D4300F400702843B9F1040F13D8A7
:1022A000DFE809F0525557595C004FF48063B0E7FE
:1022B0000423AEE70223ACE74FF0904380221A8359
:1022C000A8E7A4F818A0A5E74FF400636383B8F863
:1022D0000030834208D0264BA8F8000083F800A005
:1022E00004F024FD234B18800136062E08F1020865
:1022F00083D11F4C23780BB31E4B188804F01BFDB1
:1023000005281BD900211C481B4D0A22FFF79AFE05
:10231000002100223E46104636F8023B0B4103F0F6
:102320000103834001301A430628D2B2F4D10131AF
:102330000A2905F8012BECD10023237000F0F1F8F5
:10234000012005B0BDE8F08F4FF48063BEE70423A1
:10235000BCE70223BAE780235383B8E7A4F81AA0A6
:10236000B5E700BFE60F0020000400480008004861
:10237000D80F0020DA0F0020DC0F0020014B185C82
:10238000704700BFDC0F00207047000038B50D46D5
:1023900004F01DF9044670B10C4B186800F027FAE0
:1023A00058B10A2125B1A92000F065FB2C4602E0B6
:1023B000AA2000F060FB204638BD1DB14E2000F081
:1023C0006AFBF3E74B2000F066FBF4E70410002003
:1023D00000220248114601F01BBF00BFF40F00208D
:1023E00008B504480022032101F012FFBDE80840AF
:1023F00001F0A4BEA80C002002480022082101F030
:1024000007BF00BF680C0020FFF7F6BFFFF7E0BF73
:1024100010B50446C0B201F0C9FA2046BDE810402C
:1024200000F0D3BD45F6AF53984210B514D045F631
:10243000B05398421AD045F6AE5398421FD18C78CB
:1024400044B110480022042101F0E2FE0120FFF710
:10245000DFFF0024204610BD8C78002CFAD000222B
:102460000948114601F0D4FE0220F0E78C780220E2
:1024700014B100F0DFFDECE700F0E6FDEAE701242F
:10248000E8E700BFC00C0020F40F002001207047D7
:1024900008B5FFF7C7FF08BD704708B5FFF7FCFF99
:1024A00008BD000013B502AB03E903000F4B1B7816
:1024B000B3B99DF8023073B16AB100F059FE044619
:1024C0000146009800F01EFE0099204602B0BDE8CB
:1024D000104001F06FBC009800F032FE0446F3E7B4
:1024E000009800F045FE0099F0E700BFFC0F0020C7
:1024F000034610B400885C880A4640EA0440998884
:102500005DF8044BFFF7CEBF0120704710B50021E6
:102510000446FFF7EDFF2146FFF7BFFF10BDFFF7B1
:10252000E2BDFFF7E4BD000010B500F0FFFC02F0D3
:102530006DFA04F0FBFB002204460321084801F079
:1025400067FEFFF74DFF204604F0F5FBF92803D99D
:10255000BDE8104001F0F2BD0A2005F02AFAF2E7CA
:10256000E00C002008B5FFF7DFFFBDE8084004F0ED
:10257000FBBB08B5FFF7D8FFBDE8084004F0FEBB81
:1025800038B501210546FFF7B3FF29460446FFF79A
:102590007FFF08B9002038BD2946204601F07AFDAA
:1025A0000028F7D02946204602F0CCFA0028F1D0C6
:1025B0002946204604F07CF90028EBD02946204625
:1025C00004F01CF90028E5D02946204603F0AAFDB6
:1025D0000028DFD02946204604F08AF80028D9D008
:1025E0002946204603F098FC0028D3D0AB787BB175
:1025F00045F65C539C4226D00ED845F6DF439C42FC
:1026000018D045F65B539C421AD0B4F5B84F0ED0A3
:102610002846FFF73BFFBEE745F65D539C420CD0D2
:1026200045F6A8539C42F3D1FFF7A3FFB2E7FFF7AB
:1026300099FFAFE701F038FAF6E701F095F9E7E71F
:1026400001F09EF9E4E701F09EF9E1E708B504F036
:10265000A0FA00F0FBF8BDE8084001F06FBD08B536
:1026600000F0F9F8BDE8084004F098BA0139F0B577
:102670000025455447180A26A94200D8F0BDB2FBF0
:10268000F6F406FB14243034E4B2302C00D115B13A
:10269000002A08BF1C4607F8014DB2FBF6F20135CF
:1026A000EAE700000B4A1388834210B40A4B02D1B8
:1026B0001C788C4209D0197010800B4602465DF8D8
:1026C000044B06480621FFF7D1BF04485DF8044BD0
:1026D000704700BFF80C0020FA0F0020F40F002014
:1026E000F8B5174B17491F5C174BC20800F00700DD
:1026F0008D5C16499B5C8E5C0341054113F001041F
:1027000046FA00F005F0010500F0010602D0E120D4
:1027100000F0E2F815B1E62000F0DEF8384600F0EF
:10272000BAF915B1E62000F051F914B1E12000F03A
:102730004DF926B1BDE8F8402C2000F0ACB9F8BD49
:10274000489D0008289D0008C89D0008389D000885
:102750002DE9F041234F04460E464FF00A08207839
:1027600000283DD0012838D16378012B0ED1A07804
:10277000A51C00F090F92C4601343546002DEED012
:102780000A20013D05F015F9EDB2F7E7022B04D15F
:10279000A078A51C00F0A0F8EDE7032B04D1A078E9
:1027A000A51C00F013F9E6E7042B01D00134E3E7A0
:1027B0002246002512F8023FD95D4907144606D487
:1027C000002DD9D00A2005F0F4F8013DF8E7303BA0
:1027D00008FB053512F8013FEEE7FFF781FFCBE775
:1027E000BDE8F081219A00080021FFF7B1BF020C7B
:1027F000002A03460BBF03461346002010201A0A86
:102800001CBF134608301A091EBF04301346C0B25D
:102810009A081EBF02301346C0B25B081CBF0130CD
:10282000C0B27047704708B5FFF7FCFF08BD012034
:10283000704708B5FFF7FBFF08BD704710B50446A9
:10284000FFF7F1FF2046FFF7F4FF10BD08B50020A9
:10285000FFF7F4FF08BD08B504F05CF8FFF7EEFFE2
:1028600008BD000008B504F055F8044A117881420B
:1028700002D01070FFF7E2FF08BD00BFFB0F002081
:1028800030B587B06C4684E803009DF80230BDF88F
:1028900004500BB100F0AAFF0023ADF8163094E805
:1028A000030004AC0490ADF8141094E80300029007
:1028B0004DB1BDF808204FF6FF739A4203D0204671
:1028C000FFF722FE18B194E8030000F0C5FE07B040
:1028D00030BD008800F06CBC10B50446002870D0F4
:1028E000822813D104F016F881076AD4392000F049
:1028F00021FF00F0ABFF4FF47A7005F05AF8392051
:1029000000F020FFBDE8104000F0A0BF83280ED1EA
:1029100004F000F8C20754D4532000F00BFF00F07D
:1029200095FF4FF47A7005F044F85320E8E78428C7
:102930000ED103F0EFFF430743D4472000F0FAFE27
:1029400000F084FF4FF47A7005F033F84720D7E7A2
:10295000031FDBB2A02B11D803F09CFD88BB194BE1
:102960002146186804F034F820B1204600F0EAFE51
:1029700000F06CFF204600F0DDFEC3E700F120030D
:10298000DBB2072B07D800F007040120A040C0B23B
:1029900000F006FFB6E700F15B03DBB2022B05D8BF
:1029A0002438BDE8104080B203F0D4BF5834E4B2FC
:1029B000162C06D8044B33F81400BDE8104003F081
:1029C000D9BF10BDFC0C0020D89D000808B50346F7
:1029D00000284FD082280FD103F09CFF810749D5F2
:1029E000392000F0A7FE00F031FF392000F0AAFEE8
:1029F000BDE8084000F02ABF83280AD103F08AFF0F
:102A0000C20737D5532000F095FE00F01FFF53207A
:102A1000ECE784280AD103F07DFF43072AD547203D
:102A200000F088FE00F012FF4720DFE7021FD2B25D
:102A3000A02ADBD900F12002D2B2072A07D800F081
:102A4000070301209840C0B200F0B2FED0E700F1C9
:102A50005B02D2B2022A04D8BDE80840002003F08D
:102A600079BF5833DBB2162B04D8BDE808400020EC
:102A700003F080BF08BD38B505460C46FFF72CFFB4
:102A80001CB92846FFF7A2FF38BD0A20013C04F01C
:102A900090FFA4B2F4E708B539280CBF50210021FB
:102AA000FFF7E9FF08BD08B528B100F079FEBDE8E1
:102AB000084000F0CBBE08BD08B528B100F078FE94
:102AC000BDE8084000F0C2BE08BD00002DE9F34794
:102AD00090F80680857881460C4600F051FE4FEA5A
:102AE00018180646C8B12E46BDB1C4F3072303F03B
:102AF000F003402B04D004F12003DBB2072B1FD9D5
:102B0000AA4B5E7816F0040607D0022000F0F8FE0B
:102B100000F036FE80F00100C6B2C4F3033ABAF109
:102B20000B0F3CD8DFE81AF00E000E005D005D00D0
:102B3000C8003B003B003B00E0003A014B014B0169
:102B40000026EAE7C4F30723C4F3032713F0F00FCA
:102B500018BF3F01E4B285B157B104F12003DBB2E5
:102B6000072B384600D92CB900F01AFE00F06EFE93
:102B700020465DE000F02AFEF8E72046FFF726FF3A
:102B80006FB104F12003DBB2072B384600D914B92A
:102B900000F00EFE01E000F021FE00F057FEAAF169
:102BA000080ABAF1030F03D803F0B4FEFFF746FE9C
:102BB000002E00F0628100F0DBFD10F0010040F01B
:102BC0005C8189F8020000F0CBFD00F033FA484642
:102BD00000F06CF900F0C4FD02B0BDE8F04700F071
:102BE00033BAC4F3072303F0F003C4F30327202B05
:102BF000E4B218BF3F017CB1012C45D0002D4DD06F
:102C0000B8F1000F44D099F80630D907B0D56FF36A
:102C1000071389F806303BE0644B5B78580711D402
:102C20004DB127B1384600F0BBFD00F00FFE00208B
:102C3000FFF752FEB3E72846FFF7C8FE002FAED0DD
:102C40003846A5E79DB1B8F1000F06D100F0D4FDDC
:102C50003843C0B2FFF727FFA1E7B8F1010FF5D164
:102C600000F0CAFD3843C0B200F0D2FD97E7B8F1DA
:102C7000000F05D100F0DEFD3846FFF71DFF8EE79F
:102C8000B8F1010F8BD0F5E725B1B8F1050F86D863
:102C90003846DFE7B8F1040F81D8EDE7B8F1000F4F
:102CA000EAD0392C0CBF4FF44870012004F081FEAB
:102CB0002046FFF78BFE72E714F4406FC4F38123C4
:102CC00008D0012B7FF46BAF65B1C4F3090003F0AA
:102CD00051FE64E725B1C4F3090003F03BFE5EE753
:102CE0002846FAE72846F2E714F4407F27D1002D62
:102CF0007FF455AFC4F34210E2064FEA800048BFAC
:102D00000F25C0B248BF854004F00F03C4F38124EF
:102D100048BFED438340022C45EA030009D0032C51
:102D20000AD0012C02D000F05BF938E700F050F92E
:102D300035E700F05DF932E700F047F92FE7C4F31B
:102D40000122FDB112F0010F3FF429AFC4F342108C
:102D50008000C3B204F00F0000FA03F214F0100078
:102D60001CBF0F209840C4F3812418BFC043022C1D
:102D700040EA02000CD0032C0DD0012C05D000F04D
:102D800081F90CE712F0020FDEE700F073F906E7B5
:102D900000F080F903E700F039F900E7E7B2C4F387
:102DA00003242DB1204600F045F971E7342B0020B3
:102DB0003846FFF781FE204600F046F9EFE6E7B21D
:102DC000A7F1F003042B40D8DFE803F00324101729
:102DD000200045B1B8F1040F3FF6E1AEC4F3042082
:102DE00000F03EF9DBE6B8F1050FF5E7C4F3042087
:102DF000002DE1D100F01EF9D1E625B1C4F3042085
:102E000000F013F9CBE600F00DF9C8E61C4B5B7837
:102E10005B0704D4C4F30420002DCDD0EAE74DB104
:102E2000C4F30420019000F005F90198032100F09B
:102E300043FDB4E6012000F063FDB8F1010F7FF619
:102E4000AEAE022000F05CFDA9E63DB1B8F1000F86
:102E500001D03846ECE6C4F30420CBE7B8F1000F0C
:102E600008D0392F0CBF4FF44870012004F0A1FDA9
:102E700038461EE7C4F304209EE702B0BDE8F087A1
:102E8000342B002013B501880446807800F09CF9AB
:102E90000146019100F006F900F096F801992046EC
:102EA00002B0BDE81040FFF711BE000013B50446A4
:102EB000014606226846FEF7C3FFA388F3B1BDF8BA
:102EC00000204FF6FF739A4218D02046FFF758FBB8
:102ED00070B900F055FC88B1A3787BB1084B5B78E2
:102EE0005B070BD5022002B0BDE8104000F008BD22
:102EF0002046FFF7C7FF2046FFF708FB02B010BDD2
:102F0000342B002008B5002003F024FD002003F03E
:102F100031FD00F06BFCBDE8084000F097BC08B53F
:102F200000F018FCBDE80840FFF7ECBF08B500F062
:102F300047FCBDE80840FFF7F2BFC0F30333062BA0
:102F4000C2B213D094BF0E33063303F00F03012B2C
:102F500010D8F02A10D004D8E72A8CBF0020012016
:102F60007047F42A14BF002001207047E72A03D9D4
:102F7000F12AF7E7002070470120704708B5008864
:102F800000F016F9BDE80840FFF7D7BF82B002ABEA
:102F900003E9030002B0704782B002AB03E903000B
:102FA00002B07047704708B5FFF7FCFF08BD00008E
:102FB00008B5FFF7F8FF034B1860BDE80840FFF7BE
:102FC000A1BF00BF001000207047FFF7F1BF000055
:102FD000024B1B681843FFF7EBBF00BF0010002037
:102FE000024B1B681840FFF7E3BF00BF0010002032
:102FF000024B1B685840FFF7DBBF00BF00100020EA
:10300000704708B5FFF7FCFF08BD000008B5FFF7E3
:10301000F8FF034B1860BDE80840FFF773BF00BF1F
:10302000041000200020FFF7F1BF012303FA00F095
:10303000FFF7ECBF012303FA00F0024B1B681843B3
:10304000FFF7E4BF04100020012303FA00F0034B54
:103050001B6823EA0000FFF7D9BF00BF041000205F
:10306000012303FA00F0024B1B685840FFF7CEBF64
:1030700004100020024B1B681843FFF7C7BF00BFB6
:1030800004100020024B1B681840FFF7BFBF00BFB1
:1030900004100020024B1B685840FFF7B7BF00BF69
:1030A00004100020704701F00703C90830B501EB98
:1030B0008101012401399C400A44E4B2002112F844
:1030C000015F20FA01F343F300036B402340013119
:1030D0006B4005291370F2D130BD10B500F0070424
:1030E000C00800EB80000022014410468B5CE340E6
:1030F00003F00103934001321843052AC0B2F5D111
:1031000010BD000017B4C0F30723092BADF804006D
:103110000C460ED89DF8041005290AD803EB43038A
:10312000064A01EB4301204603B05DF8044BFFF76C
:10313000BABF03B05DF8044B704700BF0810002011
:1031400082B0ADF80400C0F3072009280BD89DF821
:103150000430052B07D8054900EB400003EB400085
:1031600002B0FFF7BABF002002B07047081000207D
:103170000D4B73B51E680D4BADF804001B681F2482
:103180001E4326FA04F3DB07E5B205D4013CF8D26E
:103190000025284602B070BD0199284600F024FEA3
:1031A00080B20128F2D0F4E70410002000100020C3
:1031B00007B5ADF804000198FFF7DAFF019903B0F5
:1031C0005DF804EB00F010BE13B5104BADF8041021
:1031D0001B782BB1019802B0BDE81040FFF7E8BFA3
:1031E00070B10198FFF7C4FF044601460198FFF74C
:1031F00089FF0199204602B0BDE8104000F0F4BDFF
:103200000198FFF79DFF0446F3E700BFFC0F002085
:10321000F8B50C4B0C4E1C780C4D3378A34200D102
:10322000F8BD05EBC40335F834005F889A88D98867
:1032300040EA074042EA01410134FFF7ADFE04F0E5
:103240000704EAE7791000207810002038100020E9
:10325000064B10B418885C889A88D98840EA0440E4
:1032600042EA01415DF8044BFFF796BE30100020A2
:10327000F7B5234CA37913F0F00F08D1A37833B13D
:10328000204B214F1D78214E3B78AB4201D103B03A
:10329000F0BD214606226846FEF7D2FDA18851B353
:1032A000BDF800204FF6FF739A4224D006EBC50309
:1032B00060785A7890421ED1207816F835209042D6
:1032C00019D19A78BAB99A88521A1149098892B2D2
:1032D000914210D9A2790A48012161F30712A27123
:1032E0009A7961F307129A71FFF7E0FD03B0BDE828
:1032F000F040FFF78DBF013505F00705C4E700BFBB
:1033000030100020791000207810002038100020A4
:10331000FA0C00202DE9F04FAF4D87B0044601466E
:10332000062202A8FEF78CFD0622294604A894F87E
:1033300000B094F801A0A778B4F80480FEF780FDEF
:10334000AB88002B00F00181BDF810204FF6FF7113
:103350008A4200F0FA80AE78002E00F0F6809F4995
:1033600095F806900988A8EB030292B2914209F001
:10337000F00940F2B5800622294604A8B9F1000FF1
:1033800071D1FEF75DFDBDF810204FF6FF718A4246
:10339000B94614D02188914211D187B9AB79012265
:1033A00062F30713AB71FFF753FF2846FFF77EFD6B
:1033B000AB79A3710026304607B0BDE8F08F8DF8D9
:1033C00008B08DF809A08DF810B08DF811A0B8F1F3
:1033D000000F23D0BDF810104FF6FF7291421DD0A0
:1033E000F7B97F497F4A0D7812787F49AA421CD1EC
:1033F0000298FFF7DDFEC0F30332012AC3B224D9DD
:103400000E3202F00F02012A28D810F4706F21D07A
:10341000A27912F0F00F1DD14E46CCE7002FC9D093
:10342000AB7943F00103AB71C4E701EBC20047780D
:10343000574506D111F832705F4502D180780028D7
:10344000B8D1013202F00702D0E710F4706F01D05A
:10345000002BE1D02033DBB2072BDDD92046FFF76C
:1034600025FDB146D8E7FEF7EBFCBDF810304FF66E
:10347000FF72934210D022889A420DD167B9AB797E
:10348000A3712046FFF712FD082221462846FEF7C9
:10349000D7FCFFF7DDFE8EE72046FFF76FFDD8B1C2
:1034A000D7B1AB791F2B0CD92A88ADF8102004A80E
:1034B00000228DF81220ADF814808DF81630FFF739
:1034C000F5FC082221464448FEF7BAFCFFF7D0FE7F
:1034D000FFF7BEFE01266EE72046FFF7E7FCF9E79F
:1034E000B9F1000F15D102AB8DF808B08DF809A025
:1034F0008DF80A7093E80300FFF748FD2846FFF7B0
:10350000D5FC082249462846FEF79CFDFFF7A0FEA1
:1035100082E70622294604A8FEF792FCBDF8103087
:103520004FF6FF729342B7D02A8823889A42B3D1CC
:10353000002FB1D1AB79A3712046FFF7B7FC082269
:1035400039462846FEF77EFD35E7234901930622DA
:1035500004A8FEF775FC019B002B66D0BDF8102077
:103560004FF6FF794A4560D0AE78002E5DD11B4AF8
:10357000A8EB030812881FFA88F8424544D93E4652
:10358000002FA9D01449062204A8FEF759FCBDF863
:1035900010304B452AD02A8823889A4226D1AB790D
:1035A000DA0713D413F0F00210D0F02AA37106D07A
:1035B000DBB2C3F30312013262F30713A371204697
:1035C000FFF774FC04480822214660E708222146E0
:1035D0000148FEF735FCEEE630100020FA0C002022
:1035E0007810002079100020381000202046FFF7C6
:1035F000C5FC00287FF465AFAB79204643F001039A
:10360000AB71FFF753FCD6E68DF808B08DF809A032
:103610008DF80A7002AB93E80300FFF7B7FC0822AD
:1036200031460C48FEF70EFD33E7002F3FF454AF50
:103630002046FFF7A3FC064600283FF44DAF0822C2
:1036400021460448FEF7FCFB0248FFF742F9FFF76A
:103650000FFE1EE730100020F0B587B06C4684E8FE
:1036600003002046FFF756FE2E4FBDF804202E4DD6
:10367000064678B194E803000490ADF814103AB10E
:10368000BDF810204FF6FF739A4201D0FFF784FC7B
:10369000264C41E094E8030004AB83E80300029069
:1036A000002AF5D0BDF8084038782A784FF6FF7127
:1036B0008C42EDD0441C04F0070494420AD0194611
:1036C0001A4B082203EBC000FEF7BAFB3C70FFF771
:1036D0009FFDDDE7FFF72AFC0822314614483E70C3
:1036E0002E70FEF7AFFCD3E704EBC000FFF712FE2D
:1036F000B0B12B7834F8330004EBC3035E889A88AA
:10370000D98840EA064042EA0141FFF745FC2B78A0
:10371000013303F007032B7028783B788342E3D111
:1037200007B0F0BD7810002079100020381000207C
:1037300030100020024B0146186803F0B5B900BFF5
:10374000FC0C0020024B0146186803F0C7B900BF0B
:10375000FC0C0020014B186803F0DAB9FC0C0020C7
:10376000024B93F90000C0F3C7007047BA10002065
:10377000024B187800F00700704700BFBA10002015
:10378000034B187810F0070018BF0120704700BFE6
:10379000BA100020014B1878704700BFBC10002001
:1037A000024B1A7810431870704700BFBC100020FD
:1037B000024A137823EA000010707047BC10002002
:1037C000014B00221A707047BC100020024B1A787F
:1037D00010431870704700BFBD100020024A1378D4
:1037E00023EA000010707047BD100020014B00223A
:1037F0001A707047BD100020014B1878704700BF49
:10380000BB100020704708B5FFF7FCFF08BD0000A3
:10381000064A5278520708B506D5054A1178814202
:1038200002D01070FFF7EFFF08BD00BF342B00205F
:10383000BB10002008B5044B1A781AB1002018708C
:10384000FFF7E1FF08BD00BFBB10002010B5124B11
:10385000124A1B781278124C1343124A20681278CD
:10386000037032B11343037003F094F808B1FFF70B
:10387000E1FF24680C4920222046FEF7B1FA48B146
:10388000214609482022FEF7DBFA2046BDE8104019
:1038900003F048B810BD00BFBC100020BD100020D0
:1038A000FC0C0020BB1000209A100020704708B5C7
:1038B000FFF7FCFF08BD00000A4A5278520710B516
:1038C0000CD5094C41EAC0012170FFF7B3FB94F914
:1038D0000000C0F3C700FFF7EAFF10BDBDE81040CD
:1038E000FFF7A8BB342B0020BA10002008B5034B0B
:1038F00000201870FFF7DBFF08BD00BFBA100020E2
:1039000008B50C4A92F9003023EA000040B210706A
:1039100042070ED1DBB283420BD0074B5B785B07CB
:1039200007D5C0F3C700FFF78FFBBDE80840FFF7DE
:10393000DDBF08BDBA100020342B0020094A08B5AD
:103940005378C3F3800181420AD060F3820353703D
:10395000108800F03BF8BDE808400220FFF7D0BF18
:1039600008BD00BF342B0020044B5878C0F3800002
:1039700080F0010000F00100FFF7E0BF342B0020D1
:103980000120FFF7DBBF0020FFF7D8BF08B50020FC
:1039900001F0DDF94FF6E863C31A5842584108BDFB
:1039A000022001F0C5B9032001F0C2B9014603208D
:1039B00001F00CBA10B5042001F0BAF90446222037
:1039C00001F0B6F944EA002080B210BD10B5C1B2D2
:1039D0000446042001F0FAF9210A2220BDE8104033
:1039E00001F0F4B9072001F0A3B90146072001F066
:1039F000EDB901460F2001F005BA0146132001F090
:103A000001BA0020FFF7F9BF08B50020FFF7F1FF6A
:103A1000FFF7F7FF08BD000010B501F0A1FB4FF65E
:103A2000E861002001F0E0F90021022001F0CEF968
:103A300000210320002401F0C9F91A4B214604207B
:103A40001C6001F0C3F90421222001F0BFF92146D6
:103A5000052001F0BBF92146062001F0B7F9FF214E
:103A6000072001F0B3F92146082001F0CBF92146E7
:103A70000D2001F0ABF92146182001F0C3F92146D1
:103A8000172001F0A3F921461C2001F0BBF92146C3
:103A9000202001F0A9F92146182001F0B3F9FFF721
:103AA000B3FF10BD00100020FFF7B6BF01460E2087
:103AB00001F08CB908B503F007F9024B1860024B0E
:103AC000186008BDC4100020C810002008B503F01D
:103AD000FBF8024B1860024B186008BDC4100020B0
:103AE000C01000207047704708B5FFF7FCFF08BD05
:103AF000704708B5FFF7FCFF08BD000008B5054892
:103B000000F058FA01F02AFBFFF7ECFFFFF7ECFF9B
:103B100008BD00BFAD3F00080120704708B5FFF7A2
:103B2000FBFF08BD7047704708B5FFF7FBFFFFF7C5
:103B3000FAFF08BD08B500F045FAFEF77EFEBDE8C5
:103B4000084000F0D7BB08B503F0A2F8FEF7D4FA9E
:103B5000FFF7F0FF02F01CF902F03CFD02F01AFD45
:103B6000FFF7C7FF08BD00002DE9F74FFEF73CFB4C
:103B7000064608B1FFF79EFFDFF8B4B000255F46A8
:103B80005FFA85F84046FEF7F9FB1BF8014B8442CB
:103B9000824635D0254B1B789B0701D5FEF7F4FBF9
:103BA00084EA0A04E3B20022012423425FFA82F984
:103BB00021D0FFF7B3FFA8B11AEA040F14BF012305
:103BC00000238DF802308DF800908DF8018003F00D
:103BD000ADF840F00100ADF8040002AB13E90300BA
:103BE000FEF74EFE7B5D5C407C55301E18BF012009
:103BF00003B0BDE8F08F01326400062AE4B2D4D1EC
:103C000001350A2DBCD14FF6FF73ADF8003000230B
:103C10008DF8023003F08AF840F00100ADF804009E
:103C200002AB13E90300FEF72BFEDEE7D6100020FF
:103C3000CC10002008B500F025FFBDE808400020AA
:103C400002F070BC08B5FFF78FFFFFF7F3FF02F03B
:103C5000CBF802F0F3FC08B1FFF738FFBDE80840ED
:103C6000FEF700BE10B500F0CBF8B0F5A44F044647
:103C700038D2B0F5A24F7DD2BE2810D8A7286CD874
:103C8000A42806D8032802D8431E5C425C41204683
:103C900010BDA0F1240444F48044A4B2F7E7B0F5C9
:103CA000A04F10D2B0F5804F5FD2E72803D8DF28AD
:103CB00098BF0024EBE7A0F580739BB2B3F5F85FE3
:103CC00028BF0024E3E7C0F38103C0F301125B01C6
:103CD00000F00300012443EA022384401C4344F41F
:103CE0000C44DAE7B0F5AC4F1AD2B0F5AA4FC0B227
:103CF00046D2B4F5A84F0ED28308B4F5A64F00F013
:103D000003004FF0010404FA00F040EA4314E6D344
:103D100044F40A44C1E74AF2F40444EA0024B6E752
:103D2000B0F5B44F09D2B0F5B24F36D2A0F5B043DA
:103D30009BB2FF2B2CD90024A9E7A0F5C0439BB26E
:103D4000B3F5005FF7D2C0F3042000F0D9F8000209
:103D500000F4F850E4B2044317E05834144BE4B2D2
:103D600033F8144044F4884491E7C0F30B0444F45E
:103D700020448CE7C4B24AF2F10343EA042486E704
:103D800000F0BEF8040204F4F85444F400547EE752
:103D90004AF2F00040EA04247FE700F00F0000F050
:103DA000AFF8C4F3031440EA042444F4104474E765
:103DB000069E000882B0ADF80410C1F3072109295E
:103DC0000ED89DF80430052B0AD83C225043062219
:103DD00002FB01001844034B33F8100002B0704797
:103DE0000020FBE7C09B000807B5ADF8041001995F
:103DF000FFF7E0FF03B05DF804EBFFF733BF00000F
:103E0000E7284DD8DF2807D8312861D00ED82928D7
:103E100057D02A2863D07047A0F1E003072B3FD882
:103E2000DFE803F0123E2126303E3A3F392804D025
:103E3000822802D035283DD07047304B1B7813F0D4
:103E4000030F18BFE02070472C4A1378D9074DD4D0
:103E5000527812F0010F23D013F0100F08BFE320A7
:103E600018BF00207047254B1B7813F0040FF2E7B2
:103E7000224A137859073BD45278D2073AD413F028
:103E8000100FEDE71D4B5A78910709D51B7813F0F9
:103E9000100F08BFE720E3E7184B1B781A07F6D48A
:103EA0007047164A1378190726D452789207E6D538
:103EB000E420F5E7114B1B7813F0200F18BF2920E1
:103EC00070470E4B1B7813F0200F18BF352070473A
:103ED0000A4B1B7813F0400F18BF2A207047074B7E
:103EE0001B7813F0400F18BF3120704739207047FE
:103EF000E2207047E0207047E6207047342B002016
:103F0000294A1378590707D500F01801082927D145
:103F100000F0F70040F00400190707D500F0180181
:103F2000182926D100F0E70040F014005278D1079C
:103F300007D500F01801082924D100F0F70040F05F
:103F40000100920707D500F01802182A23D100F0CB
:103F5000E70040F01100DB0648BF00F0E7007047C3
:103F600000F01401042904BF00F0FB0040F0080039
:103F7000D2E700F01401142904BF00F0EB0040F078
:103F80001800D3E700F01101012904BF00F0FE0082
:103F900040F00800D5E700F01102112A04BF00F03C
:103FA000EE0040F01800D6E7342B002000207047C8
:103FB00000207047014B1860704700BF000D0020C3
:103FC0007047000008B5FFF7E1FC08B9FFF76CFD8A
:103FD000FFF7E6FC084B1870FFF7ECFC074B188066
:103FE000FFF7EEFFFFF7DFFCFEF7EFFF044B18686B
:103FF000BDE80840FFF705B8D6100020342B00209C
:104000000410002008B503F08FF9FFF79CFDBDE810
:10401000084003F09FB908B503F0A2F9FFF712FEBC
:10402000BDE8084003F0BAB908B502F0CDFD03F0D1
:1040300079F9FFF763FDFFF7E5FFFFF7ECFFFFF707
:1040400073FDFAE700000000453807EE900AF8EE2D
:10405000E77AB2EE087AC7EE877A08B517EE900ACB
:10406000FDF7F4FA9FED080B41EC110BFCF744F956
:10407000074B51EC100B0022FDF740FBFDF7EEFD66
:1040800000EE100A08BD00BF000000000000004064
:1040900000807B4008B545F61D43984205D18B78DA
:1040A00073B300F039FA002008BD45F61E4398426C
:1040B00004D18B7823B300F045FAF4E745F61F43AB
:1040C000984206D18B78DBB100F030F80028F2D1AD
:1040D000E7E745F62A43984209D18B7883B100F08F
:1040E0007FFC08480022042100F092F8DBE745F647
:1040F0002B43984204D18B7813B100F077FCF0E7A2
:104100000120D1E7040D002008B5FFF79DFFBDE8B1
:10411000084000F0FDB908B5FFF796FFBDE808407C
:1041200000F016B900F00AB870477047024B1878D3
:1041300000F00100704700BFB02B002038B50D4DD6
:104140002C78B4B90C4B1C7000F0FEFB0B4B0C49E7
:104150001C700C4B1C700C4B1C800C4B2246063404
:10416000302C1A8059601A8103F10C03F7D1012316
:104170002B7038BD240D0020D7100020E110002046
:10418000000080BFE2100020DE100020502B002035
:104190000B4B1B7883420FD95A1E131A094A5BB284
:1041A0000C2101FB032393ED010AB5EEC00AF1EEE9
:1041B00010FA01D900F020BC9FED030A704700BF40
:1041C000D7100020502B0020000000000D4B07EE00
:1041D000900A1B78F8EE676ADFED0B7A9B0166EEBA
:1041E000A76A07EE903AB8EEE77AC6EE877A9FEDB7
:1041F000077A67EE877AFCEEE77A17EE903A98B284
:10420000704700BF480D00200000704200007A4453
:10421000F8B5224B1B78DB0704460E46154603D43F
:10422000BDE8F840FFF78ABF1D4B1B780BB900F0C3
:1042300061F81C4B1B780BB1FFF780FF1A4BD4EDD4
:10424000017A1A4F01221A70194A3C600023137038
:10425000184A1680184AFCEEE77A1570174D2B8025
:1042600017EE903A98B2FFF7B1FF94ED000A00F014
:10427000CDF802F05BFD124B2A8818803B6803EBF7
:10428000C203D3ED017AFCEEE77A17EE903A98B2CA
:10429000FFF79CFF0B4B1880F8BD00BFB02B002030
:1042A000D8100020E2100020E11000204C2B00204C
:1042B000E0100020382B0020B12B0020DA10002065
:1042C000DC100020DE10002008B5074B1B78DB0750
:1042D00004D5064800220421FFF79AFF02F026FDCC
:1042E000034B188008BD00BFB02B00204C0D0020F0
:1042F000DC10002010B5124C237803BBFFF746FBFF
:1043000008B9FFF7D1FBFFF76DFB0E4B00221870C9
:104310000D4B0E4811460632302A1980586019811B
:1043200003F10C03F7D123781BB900F0C7FA01237E
:104330002370FFF703FFBDE81040FFF7C5BF10BDB6
:10434000D8100020B02B0020502B0020000080BF90
:10435000F8B5274DB5EEC00A2B78F1EE10FA2DED29
:10436000028BB0EE408A48BFB1EE408A002B3BD0B2
:10437000204B1B780BB9FFF7BDFF1F4B07241946D5
:10438000D3ED167AF4EE487AF1EE10FA27D10C222A
:1043900062438B180026DFF870C08E52C3F804C049
:1043A0001E81072C0ED1154B01261E70144B1C7854
:1043B000013CE4B21C70BCB900F0C6FA114B2C7081
:1043C0001E7011E003F10C0797E80700013483E841
:1043D00007009E81C3F810C09E823B46E1E7013C86
:1043E000621CA3F10C03CBD1BDEC028BF8BD00BF66
:1043F000E2100020D8100020502B0020E3100020F5
:10440000D7100020240D0020000080BF2DE9F041CE
:10441000364B1B780646D8072DED028BB0EE408A4E
:104420004CD5334B1B780BB9FFF764FFDFF8DC800A
:10443000304F98F80030B5EEC08AF1EE10FA48BF60
:10444000B1EE488A5D1E0C22691C29D10133DBB212
:10445000082B48D9284908235422A1F10C0088F8D8
:104460000030FDF787FD254A01231370244A13709D
:1044700098F800305C1E02F059FC0C236343FA18D4
:10448000F85282ED018A168102F050FC1D4C1E4B41
:104490001880237893B100F07FFA002323700DE099
:1044A00002FB0574D4ED017AF4EE487AF1EE10FACD
:1044B00017D198F80030013B9D4203DBBDEC028B25
:1044C000BDE8F08104F10C0797E8070084E80700D5
:1044D00002F02CFC0135A08184ED048AA6823C46C2
:1044E000E7E7013DB0E788F80030BCE7B02B0020DB
:1044F000D8100020502B00205C2B0020E31000205F
:10450000E2100020240D0020F0100020D710002021
:104510004FF6FF70FFF77ABF08B5084B187840F0E8
:1045200001001870FFF761FAFFF7FEFDBDE80840D3
:10453000034800220221FFF76BBE00BFB02B002012
:10454000380D002008B5002202210A48FFF760FE5E
:10455000FFF7EBFD4FF47A7003F02BFAFFF7EEFD57
:10456000054B18786FF300001870BDE80840C0B222
:10457000FFF73BBA280D0020B02B00202DE9F047B3
:10458000634F644D3B7813B92C78002C73D002F044
:10459000CDFB2D788046EDB900253B78002B00F04F
:1045A000B5805D4B1C7824B95C4B1C78002C08BF8F
:1045B0002C465B4D5B4F00264FF6FD783B78B342AF
:1045C00000F39280584A1378002B54D000211170C8
:1045D0001C4650E0554C564E208802F0ACFB338808
:1045E0008342D9D8208802F0A6FBA4F80080DFF827
:1045F0005C81B6F80090B8F800A0A0EB09000AF1C1
:104600000103A8F800301FFA80F902F08FFB494B34
:104610001880494B1988B8F800308B4205D3474BB6
:104620001C7834B30023A8F80030454B45481A687D
:104630000478B8F80030DB0004BB02EBCA0CD418D5
:104640009CED007AD4ED007AB4EE677AF1EE10FAC0
:1046500014D1012303700220FFF7B8FD9FED3A0A41
:10466000FFF7D4FE0220A8F800A0FFF7AFFD3080CE
:1046700093E7FFF763FD2046BDE8F0871344D3EDD1
:10468000017AFCEEE77A002417EE903A047098B2B3
:10469000FFF79CFD01398145B8F8003001D99942F6
:1046A0000EDC81453ABFA0EB090084B2012402EB85
:1046B000C30393ED000A2046FFF7A8FE34806CE7A1
:1046C00001339BB2A8F8003002EBC303D3ED017AAB
:1046D000FCEEE77AA9EB000017EE903A1FFA80F99A
:1046E00098B2FFF773FDD6E72B89013B9BB2434598
:1046F00009D8288802F01FFB2B89834203D895ED47
:10470000010AFFF725FE01360C3557E72C4659E71D
:10471000E2100020E1100020ED100020EC1000203D
:10472000502B0020D7100020E3100020DC100020C8
:10473000DE100020F0100020382B0020B12B0020CC
:104740004C2B0020E010002000000000DA100020B8
:1047500010B5084C0849204603F036FA20460221DD
:1047600003F044FABDE81040032210214FF09040BE
:1047700004F019B9F42C00206C0D002008B507488E
:1047800003F042FA012210214FF0904004F00BF99F
:104790004FF0904310221A8308BD00BFF42C002074
:1047A00008B5114B2DED028BB0EE408A83ED000A67
:1047B000FFF7E4FFB5EEC08AF1EE10FA10D938EE3B
:1047C000088A9FED0A0A0A4B28EE008ABCEEC88AC6
:1047D00083ED008ABDEC028BBDE80840FFF7B8BF4F
:1047E000BDEC028B08BD00BFE41000200000804338
:1047F0006C0D002010B5084C0849204603F0E4F980
:104800002046022103F0F2F9BDE8104003222021E6
:104810004FF0904004F0C7B8142D00207C0D00200C
:1048200008B5074803F0F0F9012220214FF090402D
:1048300004F0B9F84FF0904320221A8308BD00BF5E
:10484000142D002008B5114B2DED028BB0EE408ADF
:1048500083ED000AFFF7E4FFB5EEC08AF1EE10FA2F
:1048600010D938EE088A9FED0A0A0A4B28EE008A12
:10487000BCEEC88A83ED008ABDEC028BBDE808401F
:10488000FFF7B8BFBDEC028B08BD00BFE8100020E9
:10489000000080437C0D002008B5FFF76FFE58B183
:1048A0000020FFF775FCFFF77BFF0020FFF770FC8F
:1048B000BDE80840FFF7C6BF08BD000038B5184D79
:1048C000184C032210214FF0904004F06CF8164968
:1048D000284603F03BF91549154803F075F9032202
:1048E00020214FF0904004F05EF81249204603F07A
:1048F0002DF91149114803F067F9AB6A10491A689C
:104900001048136823F002031360A36A1A6813683F
:1049100023F400331360BDE8384003F055B900BFFD
:10492000602C0020902C002034A200086C0D002088
:10493000F42C00203CA200087C0D0020142D002047
:104940008C0D0020042D002008B50E4803F05CF902
:104950000D4803F01AF940F2FF7200210A4803F0F3
:1049600003F90A4803F050F9094803F00EF9084822
:1049700040F2FF72002103F0F7F8BDE80840054857
:1049800003F042B9F42C0020602C0020142D0020EC
:10499000902C0020042D002008B50A4A0A490B4833
:1049A0004FF4807303F0E2F809490A480A4A4FF4C9
:1049B000807303F0DBF8BDE808400848022103F0EB
:1049C00015B900BF349E000844A20008602C0020E6
:1049D00054A20008902C002034A00008042D0020D0
:1049E000014B00221A707047EE100020014B00228C
:1049F0001A707047EE100020024B1B780BB9024A68
:104A000013707047EE100020EC100020024B1B7852
:104A10000BB1FFF787BB7047F310002008B5FFF715
:104A2000F5FF044B044800221A700821BDE8084035
:104A3000FFF7EEBBF3100020C00E0020034B04482C
:104A4000002208211A70FFF7E3BB00BFF21000201C
:104A50009C0D002010B5FFF7D9FF084A08481378CD
:104A6000013303F003031370282404FB0300002226
:104A7000BDE810400521FFF7CBBB00BF1C0E002096
:104A8000200E0020F8B5174B1B788BB1164C2088F0
:104A900040B902F04BF92080144C154D227842B1F8
:104AA000531E08E002F047F9124B1B888342F0D3F3
:104AB000F8BD2B78013B104E317849B10F49C85CE5
:104AC0008F5CFFF728FB337813B13846FFF71CFBE8
:104AD00023782A780133B3FBF2F102FB1133237000
:104AE000E6E700BF051100200A1100200611002092
:104AF00004110020440F0020F3100020F4100020C7
:104B000008B5054B054801221A7008210022FFF75D
:104B10007FFBFDF779FC08BDF3100020040F002097
:104B20007047000008B5054B054801221A7008219E
:104B30000022FFF76DFBFFF7F3FF08BDF210002026
:104B4000DC0D00202DE9F04145F6264398428AB05D
:104B5000044606D18B78002B3ED0FFF7D1FF002012
:104B600053E045F62743984205D18B78002B33D08C
:104B7000FFF754FFF3E745F62843984206D15D4B13
:104B80008A781B7842B3002BF2D1E6E745F62C4336
:104B9000984204D18B78FBB1FFF7C4FFDFE745F6FD
:104BA0002D43984204D18B78B3B1FFF747FFD6E786
:104BB00045F62E43984206D18B786BB14E4B1B784D
:104BC000002BF2D1E8E745F62943984204D18B78CF
:104BD00013B1FFF73FFFC2E7464B1E7826B9464B9D
:104BE0001B78002B00F084808F78002F3DD0E02CC4
:104BF0000ED1FFF70BFF414B01221A70404B0020F2
:104C00001870404B1870404B18700AB0BDE8F08126
:104C1000E22C0BD1FFF7FAFE384B1A7812B1384A62
:104C20000121117000201870364BEDE7E32C0FD1F5
:104C3000334B1B78CBB1FFF7E9FE304B00201870E7
:104C4000304B01221A70314B1870314B1880DCE761
:104C5000522C04D12F4A13880A3B13807FE7512C32
:104C600003D12C4A13880A33F7E748782A4B0A788D
:104C7000062101FB003313F80280284B1D78284BD6
:104C80001868284B24351B780544EDB29BB9454480
:104C9000EDB23FB316B12846FFF736FA174B1B7833
:104CA0002BB1194A20491378CD5401331370B4FA4B
:104CB00084F04009A9E723221C4901A8FDF7C0F8A8
:104CC0000723B8FBF3F303EB4300C3EBC303A8EBE9
:104CD00003030AAA52FA83F305EB800513F8240CA8
:104CE0000544D5E7002EE2D02846FFF714FADEE7A8
:104CF00001208AE7F3100020F210002008110020A4
:104D000007110020051100200411002006110020C9
:104D10000A110020440F0020849B0008460F002049
:104D2000000F00201C0E0020F4100020E89900085D
:104D300007B50023014601220DF107008DF8073069
:104D400000F010FA9DF8070003B05DF804FB07B50A
:104D50000023014602220DF10600ADF8063000F0F6
:104D600001FABDF8060003B05DF804FB07B50422A4
:104D7000014600230DEB0200019300F0F3F90198C6
:104D800003B05DF804FB07B501228DF8071001465A
:104D90000DF1070000F01BFA03B05DF804FB07B546
:104DA0000222ADF8061001460DF1060000F00FFAE0
:104DB00003B05DF804FB07B50422019101460DEB39
:104DC000020000F004FA03B05DF804FB38B50C46AD
:104DD0000546FFF7ADFFA04205D021462846BDE8B5
:104DE0003840FFF7D0BF38BD38B50C460546FFF751
:104DF000AEFFA04205D021462846BDE83840FFF767
:104E0000CEBF38BD38B50C460546FFF7AFFFA04210
:104E100005D021462846BDE83840FFF7CCBF38BD55
:104E200010B500F083FA094C094800F037FA094838
:104E300000F034FA204600F031FA074800F02EFA6C
:104E400000F082FA054B1C6010BD00BF00F00308A3
:104E500000E0030800E8030800F803080C21002024
:104E600038B520F00104A1B204F1006404F57834EF
:104E70004FF6FF722388934210D10A4A8D5AED43B0
:104E8000ADB29D420CD000F051FA2046294600F008
:104E900027FA044600F058FA204638BD0024FBE704
:104EA0000524F9E70C110020F8B5FFF7B9FF00F071
:104EB0003DFA0B4E0B4C0C4F052536F8021B39B151
:104EC000C94389B2204600F00BFA052818BF0546F1
:104ED0000234BC42F1D100F037FA2846F8BD00BFD9
:104EE0000C11002000E0030800F003081E4BF7B58A
:104EF000C65A1E4F012E98BF1D4C3A6894BF02231C
:104F00000423C3F1006394BF44EA4634803803F5B8
:104F1000802392BFA4B280B24FF460449A4204D975
:104F200003B0BDE8F040FFF7BFBF44EA5001019174
:104F300000F0FCF938680199831C3B6000F0D0F95F
:104F4000B4F5604F054609D13868F143831C89B236
:104F50003B6000F0C5F9052818BF054600F0F4F9DC
:104F6000284603B0F0BD00BF0C1100200C2100202A
:104F70000080FFFF37B50E4D0E4B2A689A4204465B
:104F800004D903B0BDE83040FFF78EBF00F0CEF982
:104F9000094B2868E15C41EA0421831C89B22B603B
:104FA00000F09EF9019000F0CFF9019803B030BDF8
:104FB0000C210020FFFF03080C1100201F4B204A8A
:104FC0002048F0B51D4632F8021BC943824223F83F
:104FD000021BF8D11C4C4FF6FF7743F6FE76138880
:104FE000BB4206D0180409D4190A6B540232A242FB
:104FF000F5D9164B4FF480501A60F0BD03F4C04150
:10500000B1F5C04F0FD1901CA04215D85188C943AB
:1050100089B279B106EA430380330246B3F5805F73
:10502000E4D2E952E2E75904E0D4C3F3403106EA9E
:105030004303F3E70246D9E70246DAE70C11002002
:1050400000E0030800F00308FFFF03080C21002024
:1050500008B5FFF7E5FEBDE80840FFF7AFBF000069
:10506000B0F5805F10B5044614D20C4BC25C8A4286
:1050700012D0C154FFF7F4FE68B97F2C04D8204643
:10508000BDE81040FFF776BF24F00100BDE81040F6
:10509000FFF72CBF072010BD0020FCE70C110020FB
:1050A000B0F5805FF8B505460E4634D210F0010425
:1050B0000DD0C9B2FFF7D4FF0446681C310A80B294
:1050C000FFF7CEFF052818BF04462046F8BD134B56
:1050D000C75AB942F9D0C152FFF7C2FE04460028B0
:1050E000F3D17F2D12D8FBB2F2B293420CD02846F6
:1050F000FFF740FF0446360AB6EB172FE5D0681CD1
:1051000080B2FFF737FFDDE70524F4E72846BDE866
:10511000F840FFF7EBBE0724D7E700BF0C110020D3
:10512000B0F5805F3ABF024BC05CFF20704700BF04
:105130000C11002040F6FE7398420AD8064BC207B5
:1051400041BF5A1C825CC05C40EA022058BFC05A72
:1051500070474FF6FF7070470C110020FFF72EBF0D
:10516000FFF776BF2DE9F843044615464AB1CB0751
:1051700007D588B2FFF7D4FF4A1C04F8010B013DA4
:10518000114625F0010804F00109A61C6F088844A7
:1051900041450BD16FF0010202FB075525B188B2E2
:1051A000FFF7BEFF04F81700BDE8F88388B2FFF7E9
:1051B000C1FFB9F1000F04D126F8020C023102360A
:1051C000E6E706F8020C000A06F8010CF6E7F8B567
:1051D00006460D4614464AB1CB0707D54F1CA8B268
:1051E00016F8011BFFF73CFF013C3D4600273A192A
:1051F000012AA6EB07030FD863086FF0010224F021
:10520000010002FB0344284484B116F8131080B255
:10521000BDE8F840FFF724BF1A785978E81B42EA46
:10522000012180B2FFF73CFF023FE0E7F8BD00003C
:105230000B4BDA68D0070CD4DA6851070BD4DA6864
:10524000D2060AD4D86800F00100C0F10500C0B24F
:10525000704701207047022070470320704700BF4D
:105260000020024073B50446FFF7E2FF0025FF2649
:1052700001280FD114B9062002B070BD0195019626
:10528000019B1BB9FFF7D4FF013CF1E7019B013BF8
:105290000193F5E7002C08BF0620EDE738B5054679
:1052A00040F6FF70FFF7DEFF052815D10B4C236990
:1052B00043F0020323616561236943F040032361E6
:1052C00040F6FF70FFF7CEFF06281EBF236923F0CC
:1052D000020323613423E36038BD00BF0020024095
:1052E000104B00F178429A4270B505460E4616D82A
:1052F0001F20FFF7B7FF052810D10B4C236943F09F
:10530000010323611F202E80FFF7ACFF06281EBF7C
:10531000236923F0010323613423E36070BD072078
:10532000FCE700BFFEFF070000200240044B1A69A3
:10533000120641BF034A5A6002F188325A60704730
:105340000020024023016745024A136943F08003AD
:10535000136170470020024030B585B010F47F4FD4
:105360000190C0F30725C0F3074217D109B1314BB3
:105370009A5C8DF80C208DF80D208DF80E209DF88C
:105380000C30002063F307009DF80D3063F30F200D
:105390009DF80E3063F3174005B030BD9DF8044012
:1053A00071B3244B995C04EB4400FF234000B0FB35
:1053B000F3F06FF05403434303EB440303EB430365
:1053C000DBB215FB03F2C3F1FF036B4312121B1296
:1053D000C5F1FF04C2F1FF02C3F1FF034C434A438E
:1053E0004B43C4F30724C2F30722C3F30723C9B214
:1053F000062819D8DFE800F00608110F1418060077
:1054000091B2D0E70A4619468DF80C108DF80D20A0
:105410008DF80E40B3E70B46114622461C46F3E7D3
:105420001A460B462146F9E70B46214614461A4612
:10543000EAE700BFE8A3000884B0012104B0FFF749
:105440008BBF704784B004B0FFF7F6BF13B58DF87B
:1054500002208DF800008DF8011000981C46FFF71F
:10546000F1FFC0F30743C0F3072262702070A370FE
:1054700002B010BD064A137813F0FE0F04D10121CB
:1054800061F3470313707047492BFCD92421F7E7D8
:10549000B42B00200820FFF769BC07B50190FFF787
:1054A000E9FF0199082003B05DF804EBFFF7AABCFF
:1054B000014B1868FFF7F1BFB42B0020034B0448E1
:1054C000186000221A71FFF7E8BF00BFB42B00205C
:1054D0000300FFFF034B1B7813F0010018BF5808AF
:1054E000704700BFB42B0020044A1379022B9CBFE5
:1054F0000133137108B1FFF7DBBF7047B42B0020F5
:105500000120FFF7F1BF0000044A13790BB1013B02
:10551000137108B1FFF7CCBF704700BFB42B002058
:105520000120FFF7F1BF0000012303FA00F0034B55
:105530009B78034214BF01200020704720210020E7
:1055400000F0D2BD2DE9F04F3048314E027896F888
:1055500001A012F0010285B010D02E4BD3F80080CC
:10556000B8F1000F1DD130782B4B00EB40005146B5
:105570001844FFF7E5FF05B0BDE8F08FB178264D80
:10558000F47801EB41032B448C4203F10303E4D98B
:10559000013103F8022C03F8032C03F8012CC9B2E3
:1055A000F2E70378DB07DED5DFF86C900027F8B26E
:1055B000FFF7BAFF28B358F82750002DD3D02C7826
:1055C0006B7895F802B0E9782A79FF2C05F105058A
:1055D00017D02344092BA8BF092303EB43034B44F3
:1055E00004EB440401934C44019BA342E7D92346B6
:1055F0005846039202910334FFF728FF039A029959
:10560000F2E70137082FD2D1ADE700BFB42B00205D
:105610004A0F00201C210020BC2B00200E4B1B78C1
:10562000DB0770B416D50D4B0D4E9C78DD7804EB7E
:1056300044033344AC4203F1030302D370BCFFF7CD
:1056400081BF013403F8020C03F8031C03F8012C9A
:10565000E4B2EFE770BC7047B42B00204A0F002083
:10566000BC2B0020094B1B78DB0707B50AD501AB23
:10567000FFF7ECFE9DF806209DF804109DF805004C
:10568000FFF7CCFF03B05DF804FB00BFB42B002094
:10569000064B0279064910B504468A5C5878997819
:1056A000FFF7E0FF23790133237110BDB42B0020F5
:1056B000A0A20008054B10B50446DA789978007965
:1056C000FFF7D0FF23790133237110BDB42B0020E5
:1056D00037B5164D0446287838B9FF2201AB11467C
:1056E000FFF7B4FE9DF805302B702179012911D008
:1056F000022913D0B1B928780A46FFF78FFF237922
:1057000003220133B3FBF2F202EB42029B1A237134
:1057100003B030BD002229781046EEE700202A7839
:105720000146EAE7002210461146E6E7182100206C
:105730002DE9F04F394C94F800E085B01EF0010FD0
:1057400005460F461646019365D04FEA5E03DFF823
:10575000D4C0DFF8D4801CF803C088F800C00EF075
:10576000FE0EBEF1020F16D103ABFFF76FFE9DF8E0
:105770000E209DF80C109DF80D00FFF74FFF019BC8
:105780006570A770E670002B45D0206805B0BDE8B5
:10579000F04FFFF782BEBCF1020F01D1E678EEE7D1
:1057A000BCF1060F01D16578E9E7BCF1090FFAD029
:1057B000BCF1190FE3D1193B03F001020092C3F3CE
:1057C0004603174ADFF8649012F803A0DFF860B0D0
:1057D0004FF0000899F804205FFA88F39A4202D843
:1057E000FFF7B0FECBE703FB0AF0B0FBF2F0009A44
:1057F000C0B272B9284499F80220134403EB430362
:10580000C0B25B4432463946FFF720FE08F101087A
:10581000E0E7281AEFE705B0BDE8F08FB42B0020D1
:1058200068A200087BA20008202100204A0F002067
:10583000BC2B0020054910B44C78CA78897808340C
:105840000346E0B25DF8044BFFF772BFB42B0020B3
:105850000120FFF7EFBF0000054910B44C78CA786B
:105860008978083C0346E0B25DF8044BFFF760BF5F
:10587000B42B00200120FFF7EFBF000010B4074C4D
:10588000A178E2781131FF2928BFFF210346C9B270
:1058900060785DF8044BFFF74BBF00BFB42B0020CE
:1058A0000120FFF7EBBF000010B4064CA178E278AE
:1058B000113921EAE1710346C9B260785DF8044B01
:1058C000FFF736BFB42B00200120FFF7EDBF00002B
:1058D00010B4074CE278A1781132FF2A28BFFF22CA
:1058E0000346D2B260785DF8044BFFF721BF00BFDA
:1058F000B42B00200120FFF7EBBF000010B4064CD2
:10590000E278A178113A22EAE2720346D2B26078D4
:105910005DF8044BFFF70CBFB42B00200120FFF70C
:10592000EDBF0023FFF704BF2DE9F041144EDFF86F
:105930005880144F044600253279E8B282420DD8CF
:10594000FFF700FEA37813F0010F237914BF013392
:1059500003F1FF335BB22371BDE8F081B378FF211F
:10596000B1FBF2F12279034403EB430301FB002076
:105970004344FA78B978C0B2FFF768FD0135DBE738
:105980004A0F0020B42B0020BC2B00202DE9F74F3C
:1059900083782E4E2E4D13F0010F0CBF4FF0010BEC
:1059A0004FF0FF3B4FF0000933795FFA89F8434528
:1059B0000CD8FFF7C7FDBBF1010F2B783FD103B91E
:1059C0003379013B2B7003B0BDE8F08FB2782149E9
:1059D000DFF884A0424402EB4202531800245C70BA
:1059E00054545FFA8BF29C70009204272A78224468
:1059F000D1B252B2092A1DDD092192FBF1F101EB6E
:105A0000C101521A52B242450CD19AF803209AF8B9
:105A100002109AF8010001937A43C2F38702FFF75C
:105A200015FD019B009A013F1444E4B2DED109F157
:105A30000109B9E7002AE6DA32790A44E2E7327965
:105A40000133B3FBF2F102FB1133BBE74A0F002035
:105A500019210020BC2B0020B42B00202DE9F84395
:105A60002B4C2C4DA278E07802EB42032B44002112
:105A7000904203F1030320D8274EDFF8A090DFF80F
:105A8000A48000272179FAB291421FD8FFF75AFD6E
:105A9000224D23482A78017833780A4452B20B44C5
:105AA0005BB2002A33702A7003DD2279013A9342F7
:105AB00001DB49420170BDE8F883013203F8021CA2
:105AC00003F8031C03F8011CD2B2D1E7B2FBF1F3D7
:105AD00001FB1323A1780B4496F90010DBB28A4234
